{
  "_format": "hh-sol-artifact-1",
  "contractName": "KOAccessControls",
  "sourceName": "contracts/access/KOAccessControls.sol",
  "abi": [
    {
      "inputs": [],
      "stateMutability": "nonpayable",
      "type": "constructor"
    },
    {
      "anonymous": false,
      "inputs": [
        {
          "indexed": true,
          "internalType": "bytes32",
          "name": "role",
          "type": "bytes32"
        },
        {
          "indexed": true,
          "internalType": "bytes32",
          "name": "previousAdminRole",
          "type": "bytes32"
        },
        {
          "indexed": true,
          "internalType": "bytes32",
          "name": "newAdminRole",
          "type": "bytes32"
        }
      ],
      "name": "RoleAdminChanged",
      "type": "event"
    },
    {
      "anonymous": false,
      "inputs": [
        {
          "indexed": true,
          "internalType": "bytes32",
          "name": "role",
          "type": "bytes32"
        },
        {
          "indexed": true,
          "internalType": "address",
          "name": "account",
          "type": "address"
        },
        {
          "indexed": true,
          "internalType": "address",
          "name": "sender",
          "type": "address"
        }
      ],
      "name": "RoleGranted",
      "type": "event"
    },
    {
      "anonymous": false,
      "inputs": [
        {
          "indexed": true,
          "internalType": "bytes32",
          "name": "role",
          "type": "bytes32"
        },
        {
          "indexed": true,
          "internalType": "address",
          "name": "account",
          "type": "address"
        },
        {
          "indexed": true,
          "internalType": "address",
          "name": "sender",
          "type": "address"
        }
      ],
      "name": "RoleRevoked",
      "type": "event"
    },
    {
      "inputs": [],
      "name": "CONTRACT_ROLE",
      "outputs": [
        {
          "internalType": "bytes32",
          "name": "",
          "type": "bytes32"
        }
      ],
      "stateMutability": "view",
      "type": "function"
    },
    {
      "inputs": [],
      "name": "DEFAULT_ADMIN_ROLE",
      "outputs": [
        {
          "internalType": "bytes32",
          "name": "",
          "type": "bytes32"
        }
      ],
      "stateMutability": "view",
      "type": "function"
    },
    {
      "inputs": [],
      "name": "MINTER_ROLE",
      "outputs": [
        {
          "internalType": "bytes32",
          "name": "",
          "type": "bytes32"
        }
      ],
      "stateMutability": "view",
      "type": "function"
    },
    {
      "inputs": [
        {
          "internalType": "address",
          "name": "_address",
          "type": "address"
        }
      ],
      "name": "addAdminRole",
      "outputs": [],
      "stateMutability": "nonpayable",
      "type": "function"
    },
    {
      "inputs": [
        {
          "internalType": "address",
          "name": "_address",
          "type": "address"
        }
      ],
      "name": "addContractRole",
      "outputs": [],
      "stateMutability": "nonpayable",
      "type": "function"
    },
    {
      "inputs": [
        {
          "internalType": "address",
          "name": "_address",
          "type": "address"
        }
      ],
      "name": "addMinterRole",
      "outputs": [],
      "stateMutability": "nonpayable",
      "type": "function"
    },
    {
      "inputs": [
        {
          "internalType": "bytes32",
          "name": "role",
          "type": "bytes32"
        }
      ],
      "name": "getRoleAdmin",
      "outputs": [
        {
          "internalType": "bytes32",
          "name": "",
          "type": "bytes32"
        }
      ],
      "stateMutability": "view",
      "type": "function"
    },
    {
      "inputs": [
        {
          "internalType": "bytes32",
          "name": "role",
          "type": "bytes32"
        },
        {
          "internalType": "uint256",
          "name": "index",
          "type": "uint256"
        }
      ],
      "name": "getRoleMember",
      "outputs": [
        {
          "internalType": "address",
          "name": "",
          "type": "address"
        }
      ],
      "stateMutability": "view",
      "type": "function"
    },
    {
      "inputs": [
        {
          "internalType": "bytes32",
          "name": "role",
          "type": "bytes32"
        }
      ],
      "name": "getRoleMemberCount",
      "outputs": [
        {
          "internalType": "uint256",
          "name": "",
          "type": "uint256"
        }
      ],
      "stateMutability": "view",
      "type": "function"
    },
    {
      "inputs": [
        {
          "internalType": "bytes32",
          "name": "role",
          "type": "bytes32"
        },
        {
          "internalType": "address",
          "name": "account",
          "type": "address"
        }
      ],
      "name": "grantRole",
      "outputs": [],
      "stateMutability": "nonpayable",
      "type": "function"
    },
    {
      "inputs": [
        {
          "internalType": "address",
          "name": "_address",
          "type": "address"
        }
      ],
      "name": "hasAdminRole",
      "outputs": [
        {
          "internalType": "bool",
          "name": "",
          "type": "bool"
        }
      ],
      "stateMutability": "view",
      "type": "function"
    },
    {
      "inputs": [
        {
          "internalType": "address",
          "name": "_address",
          "type": "address"
        }
      ],
      "name": "hasContractOrMinterRole",
      "outputs": [
        {
          "internalType": "bool",
          "name": "",
          "type": "bool"
        }
      ],
      "stateMutability": "view",
      "type": "function"
    },
    {
      "inputs": [
        {
          "internalType": "address",
          "name": "_address",
          "type": "address"
        }
      ],
      "name": "hasContractRole",
      "outputs": [
        {
          "internalType": "bool",
          "name": "",
          "type": "bool"
        }
      ],
      "stateMutability": "view",
      "type": "function"
    },
    {
      "inputs": [
        {
          "internalType": "address",
          "name": "_address",
          "type": "address"
        }
      ],
      "name": "hasMinterRole",
      "outputs": [
        {
          "internalType": "bool",
          "name": "",
          "type": "bool"
        }
      ],
      "stateMutability": "view",
      "type": "function"
    },
    {
      "inputs": [
        {
          "internalType": "bytes32",
          "name": "role",
          "type": "bytes32"
        },
        {
          "internalType": "address",
          "name": "account",
          "type": "address"
        }
      ],
      "name": "hasRole",
      "outputs": [
        {
          "internalType": "bool",
          "name": "",
          "type": "bool"
        }
      ],
      "stateMutability": "view",
      "type": "function"
    },
    {
      "inputs": [
        {
          "internalType": "address",
          "name": "_address",
          "type": "address"
        }
      ],
      "name": "removeAdminRole",
      "outputs": [],
      "stateMutability": "nonpayable",
      "type": "function"
    },
    {
      "inputs": [
        {
          "internalType": "address",
          "name": "_address",
          "type": "address"
        }
      ],
      "name": "removeContractRole",
      "outputs": [],
      "stateMutability": "nonpayable",
      "type": "function"
    },
    {
      "inputs": [
        {
          "internalType": "address",
          "name": "_address",
          "type": "address"
        }
      ],
      "name": "removeMinterRole",
      "outputs": [],
      "stateMutability": "nonpayable",
      "type": "function"
    },
    {
      "inputs": [
        {
          "internalType": "bytes32",
          "name": "role",
          "type": "bytes32"
        },
        {
          "internalType": "address",
          "name": "account",
          "type": "address"
        }
      ],
      "name": "renounceRole",
      "outputs": [],
      "stateMutability": "nonpayable",
      "type": "function"
    },
    {
      "inputs": [
        {
          "internalType": "bytes32",
          "name": "role",
          "type": "bytes32"
        },
        {
          "internalType": "address",
          "name": "account",
          "type": "address"
        }
      ],
      "name": "revokeRole",
      "outputs": [],
      "stateMutability": "nonpayable",
      "type": "function"
    }
  ],
  "bytecode": "0x60806040523480156200001157600080fd5b50620000286000620000226200005d565b62000061565b620000577f9f2df0fed2c77648de5860a4cc508cd0818c85b8b8a1ab4ceeef8d981c8956a6620000226200005d565b62000171565b3390565b6200006d828262000071565b5050565b600082815260208181526040909120620000969183906200086f620000ea821b17901c565b156200006d57620000a66200005d565b6001600160a01b0316816001600160a01b0316837f2f8788117e7eff1d82e926ec794901d17c78024a50270940304540a733656f0d60405160405180910390a45050565b600062000101836001600160a01b0384166200010a565b90505b92915050565b600062000118838362000159565b620001505750815460018181018455600084815260208082209093018490558454848252828601909352604090209190915562000104565b50600062000104565b60009081526001919091016020526040902054151590565b610cc080620001816000396000f3fe608060405234801561001057600080fd5b506004361061012c5760003560e01c80638c481207116100ad578063c395fcb311610071578063c395fcb314610379578063ca15c8731461039f578063d5391393146103bc578063d547741f146103c4578063dccfe310146103f05761012c565b80638c481207146102ba5780639010d07c146102e057806391d148541461031f578063a217fddf1461034b578063adbf3776146103535761012c565b806336568abe116100f457806336568abe146101f65780634651a5df1461022257806354f1e126146102485780636595171c1461026e57806381c3f9a4146102945761012c565b806303fe46ab14610131578063078581941461014b578063099db01714610173578063248a9ca3146101ad5780632f2ff15d146101ca575b600080fd5b610139610416565b60408051918252519081900360200190f35b6101716004803603602081101561016157600080fd5b50356001600160a01b0316610428565b005b6101996004803603602081101561018957600080fd5b50356001600160a01b0316610490565b604080519115158252519081900360200190f35b610139600480360360208110156101c357600080fd5b50356104b0565b610171600480360360408110156101e057600080fd5b50803590602001356001600160a01b03166104c5565b6101716004803603604081101561020c57600080fd5b50803590602001356001600160a01b031661052c565b6101996004803603602081101561023857600080fd5b50356001600160a01b031661058d565b6101716004803603602081101561025e57600080fd5b50356001600160a01b03166105c5565b6101716004803603602081101561028457600080fd5b50356001600160a01b0316610625565b610171600480360360208110156102aa57600080fd5b50356001600160a01b0316610678565b610199600480360360208110156102d057600080fd5b50356001600160a01b03166106d8565b610303600480360360408110156102f657600080fd5b50803590602001356106f2565b604080516001600160a01b039092168252519081900360200190f35b6101996004803603604081101561033557600080fd5b50803590602001356001600160a01b0316610711565b610139610729565b6101716004803603602081101561036957600080fd5b50356001600160a01b031661072e565b6101996004803603602081101561038f57600080fd5b50356001600160a01b031661078e565b610139600480360360208110156103b557600080fd5b503561079a565b6101396107b1565b610171600480360360408110156103da57600080fd5b50803590602001356001600160a01b03166107c3565b6101716004803603602081101561040657600080fd5b50356001600160a01b031661081c565b600080516020610c3c83398151915281565b61043a6000610435610884565b610711565b6104755760405162461bcd60e51b8152600401808060200182810382526038815260200180610bad6038913960400191505060405180910390fd5b61048d600080516020610c3c833981519152826107c3565b50565b60006104aa600080516020610c1c83398151915283610711565b92915050565b60009081526020819052604090206002015490565b6000828152602081905260409020600201546104e390610435610884565b61051e5760405162461bcd60e51b815260040180806020018281038252602f815260200180610b4e602f913960400191505060405180910390fd5b6105288282610888565b5050565b610534610884565b6001600160a01b0316816001600160a01b0316146105835760405162461bcd60e51b815260040180806020018281038252602f815260200180610c5c602f913960400191505060405180910390fd5b61052882826108f1565b60006105a7600080516020610c3c83398151915283610711565b806104aa57506104aa600080516020610c1c83398151915283610711565b6105d26000610435610884565b61060d5760405162461bcd60e51b8152600401808060200182810382526038815260200180610bad6038913960400191505060405180910390fd5b61048d600080516020610c1c833981519152826107c3565b6106326000610435610884565b61066d5760405162461bcd60e51b8152600401808060200182810382526037815260200180610be56037913960400191505060405180910390fd5b61048d60008261051e565b6106856000610435610884565b6106c05760405162461bcd60e51b8152600401808060200182810382526037815260200180610be56037913960400191505060405180910390fd5b61048d600080516020610c3c8339815191528261051e565b60006104aa600080516020610c3c83398151915283610711565b600082815260208190526040812061070a908361095a565b9392505050565b600082815260208190526040812061070a9083610966565b600081565b61073b6000610435610884565b6107765760405162461bcd60e51b8152600401808060200182810382526037815260200180610be56037913960400191505060405180910390fd5b61048d600080516020610c1c8339815191528261051e565b60006104aa8183610711565b60008181526020819052604081206104aa9061097b565b600080516020610c1c83398151915281565b6000828152602081905260409020600201546107e190610435610884565b6105835760405162461bcd60e51b8152600401808060200182810382526030815260200180610b7d6030913960400191505060405180910390fd5b6108296000610435610884565b6108645760405162461bcd60e51b8152600401808060200182810382526038815260200180610bad6038913960400191505060405180910390fd5b61048d6000826107c3565b600061070a836001600160a01b038416610986565b3390565b60008281526020819052604090206108a0908261086f565b15610528576108ad610884565b6001600160a01b0316816001600160a01b0316837f2f8788117e7eff1d82e926ec794901d17c78024a50270940304540a733656f0d60405160405180910390a45050565b600082815260208190526040902061090990826109d0565b1561052857610916610884565b6001600160a01b0316816001600160a01b0316837ff6391f5c32d9c69d2a47ea670b442974b53935d1edc7fd64eb21e047a839171b60405160405180910390a45050565b600061070a83836109e5565b600061070a836001600160a01b038416610a49565b60006104aa82610a61565b60006109928383610a49565b6109c8575081546001818101845560008481526020808220909301849055845484825282860190935260409020919091556104aa565b5060006104aa565b600061070a836001600160a01b038416610a65565b81546000908210610a275760405162461bcd60e51b8152600401808060200182810382526022815260200180610b2c6022913960400191505060405180910390fd5b826000018281548110610a3657fe5b9060005260206000200154905092915050565b60009081526001919091016020526040902054151590565b5490565b60008181526001830160205260408120548015610b215783546000198083019190810190600090879083908110610a9857fe5b9060005260206000200154905080876000018481548110610ab557fe5b600091825260208083209091019290925582815260018981019092526040902090840190558654879080610ae557fe5b600190038181906000526020600020016000905590558660010160008781526020019081526020016000206000905560019450505050506104aa565b60009150506104aa56fe456e756d657261626c655365743a20696e646578206f7574206f6620626f756e6473416363657373436f6e74726f6c3a2073656e646572206d75737420626520616e2061646d696e20746f206772616e74416363657373436f6e74726f6c3a2073656e646572206d75737420626520616e2061646d696e20746f207265766f6b654b4f416363657373436f6e74726f6c733a2073656e646572206d75737420626520616e2061646d696e20746f207265766f6b6520726f6c654b4f416363657373436f6e74726f6c733a2073656e646572206d75737420626520616e2061646d696e20746f206772616e7420726f6c659f2df0fed2c77648de5860a4cc508cd0818c85b8b8a1ab4ceeef8d981c8956a6364d3d7565c7a8300c96fd53e065d19b65848d7b23b3191adcd55621c744223c416363657373436f6e74726f6c3a2063616e206f6e6c792072656e6f756e636520726f6c657320666f722073656c66a264697066735822122073a0c88eda2c9424ee306e993984d407b4369a22f5c96c39dda7699426d2eec464736f6c63430007030033",
  "linkReferences": {},
  "deployedLinkReferences": {}
}