{
  "_format": "hh-sol-artifact-1",
  "contractName": "FundsSplitter",
  "sourceName": "contracts/collaborators/impl/FundsSplitter.sol",
  "abi": [
    {
      "inputs": [
        {
          "internalType": "address[]",
          "name": "_recipients",
          "type": "address[]"
        },
        {
          "internalType": "uint256[]",
          "name": "_splits",
          "type": "uint256[]"
        }
      ],
      "name": "init",
      "outputs": [],
      "stateMutability": "nonpayable",
      "type": "function"
    },
    {
      "inputs": [
        {
          "internalType": "uint256",
          "name": "",
          "type": "uint256"
        }
      ],
      "name": "recipients",
      "outputs": [
        {
          "internalType": "address",
          "name": "",
          "type": "address"
        }
      ],
      "stateMutability": "view",
      "type": "function"
    },
    {
      "inputs": [
        {
          "internalType": "uint256",
          "name": "index",
          "type": "uint256"
        }
      ],
      "name": "royaltyAtIndex",
      "outputs": [
        {
          "internalType": "address",
          "name": "",
          "type": "address"
        },
        {
          "internalType": "uint256",
          "name": "",
          "type": "uint256"
        }
      ],
      "stateMutability": "view",
      "type": "function"
    },
    {
      "inputs": [
        {
          "internalType": "uint256",
          "name": "",
          "type": "uint256"
        }
      ],
      "name": "splits",
      "outputs": [
        {
          "internalType": "uint256",
          "name": "",
          "type": "uint256"
        }
      ],
      "stateMutability": "view",
      "type": "function"
    },
    {
      "inputs": [],
      "name": "totalRecipients",
      "outputs": [
        {
          "internalType": "uint256",
          "name": "",
          "type": "uint256"
        }
      ],
      "stateMutability": "view",
      "type": "function"
    },
    {
      "stateMutability": "payable",
      "type": "receive"
    }
  ],
  "bytecode": "0x608060405234801561001057600080fd5b5061061e806100206000396000f3fe60806040526004361061004e5760003560e01c8063371aa1581461012d578063884c300614610208578063b45df66c14610257578063d1bc76a1146102c3578063f4f8495b1461032857610128565b366101285760003490506000620186a0828161006657fe5b04905060005b6001805490508110156101235760006002828154811061008857fe5b906000526020600020015483029050600182815481106100a457fe5b9060005260206000200160009054906101000a900473ffffffffffffffffffffffffffffffffffffffff1673ffffffffffffffffffffffffffffffffffffffff166108fc829081150290604051600060405180830381858888f19350505050158015610114573d6000803e3d6000fd5b5050808060010191505061006c565b505050005b600080fd5b34801561013957600080fd5b506102066004803603604081101561015057600080fd5b810190808035906020019064010000000081111561016d57600080fd5b82018360208201111561017f57600080fd5b803590602001918460208302840111640100000000831117156101a157600080fd5b9091929391929390803590602001906401000000008111156101c257600080fd5b8201836020820111156101d457600080fd5b803590602001918460208302840111640100000000831117156101f657600080fd5b9091929391929390505050610353565b005b34801561021457600080fd5b506102416004803603602081101561022b57600080fd5b8101908080359060200190929190505050610418565b6040518082815260200191505060405180910390f35b34801561026357600080fd5b506102906004803603602081101561027a57600080fd5b8101908080359060200190929190505050610439565b604051808373ffffffffffffffffffffffffffffffffffffffff1681526020018281526020019250505060405180910390f35b3480156102cf57600080fd5b506102fc600480360360208110156102e657600080fd5b8101908080359060200190929190505050610495565b604051808273ffffffffffffffffffffffffffffffffffffffff16815260200191505060405180910390f35b34801561033457600080fd5b5061033d6104d1565b6040518082815260200191505060405180910390f35b60008054906101000a900460ff16156103d4576040517f08c379a00000000000000000000000000000000000000000000000000000000081526004018080602001828103825260158152602001807f636f6e7472616374206c6f636b656420736f727279000000000000000000000081525060200191505060405180910390fd5b60016000806101000a81548160ff0219169083151502179055508383600191906103ff9291906104de565b5081816002919061041192919061057e565b5050505050565b6002818154811061042557fe5b906000526020600020016000915090505481565b6000806001838154811061044957fe5b9060005260206000200160009054906101000a900473ffffffffffffffffffffffffffffffffffffffff166002848154811061048157fe5b906000526020600020015491509150915091565b600181815481106104a257fe5b906000526020600020016000915054906101000a900473ffffffffffffffffffffffffffffffffffffffff1681565b6000600180549050905090565b82805482825590600052602060002090810192821561056d579160200282015b8281111561056c57823573ffffffffffffffffffffffffffffffffffffffff168260006101000a81548173ffffffffffffffffffffffffffffffffffffffff021916908373ffffffffffffffffffffffffffffffffffffffff160217905550916020019190600101906104fe565b5b50905061057a91906105cb565b5090565b8280548282559060005260206000209081019282156105ba579160200282015b828111156105b957823582559160200191906001019061059e565b5b5090506105c791906105cb565b5090565b5b808211156105e45760008160009055506001016105cc565b509056fea2646970667358221220bfde9b648c808700294a1280449b3fe9ebac8a4d39a538c5e4d04472406bfd1e64736f6c63430007030033",
  "linkReferences": {},
  "deployedLinkReferences": {}
}