{
  "_format": "hh-sol-artifact-1",
  "contractName": "FundsReceiver",
  "sourceName": "contracts/collaborators/impl/FundsReceiver.sol",
  "abi": [
    {
      "inputs": [],
      "name": "drain",
      "outputs": [],
      "stateMutability": "nonpayable",
      "type": "function"
    },
    {
      "inputs": [
        {
          "internalType": "address[]",
          "name": "_recipients",
          "type": "address[]"
        },
        {
          "internalType": "uint256[]",
          "name": "_splits",
          "type": "uint256[]"
        }
      ],
      "name": "init",
      "outputs": [],
      "stateMutability": "nonpayable",
      "type": "function"
    },
    {
      "inputs": [
        {
          "internalType": "uint256",
          "name": "",
          "type": "uint256"
        }
      ],
      "name": "recipients",
      "outputs": [
        {
          "internalType": "address",
          "name": "",
          "type": "address"
        }
      ],
      "stateMutability": "view",
      "type": "function"
    },
    {
      "inputs": [
        {
          "internalType": "uint256",
          "name": "index",
          "type": "uint256"
        }
      ],
      "name": "royaltyAtIndex",
      "outputs": [
        {
          "internalType": "address",
          "name": "",
          "type": "address"
        },
        {
          "internalType": "uint256",
          "name": "",
          "type": "uint256"
        }
      ],
      "stateMutability": "view",
      "type": "function"
    },
    {
      "inputs": [
        {
          "internalType": "uint256",
          "name": "",
          "type": "uint256"
        }
      ],
      "name": "splits",
      "outputs": [
        {
          "internalType": "uint256",
          "name": "",
          "type": "uint256"
        }
      ],
      "stateMutability": "view",
      "type": "function"
    },
    {
      "inputs": [],
      "name": "totalRecipients",
      "outputs": [
        {
          "internalType": "uint256",
          "name": "",
          "type": "uint256"
        }
      ],
      "stateMutability": "view",
      "type": "function"
    },
    {
      "stateMutability": "payable",
      "type": "receive"
    }
  ],
  "bytecode": "0x608060405260016000806101000a81548160ff02191690831515021790555034801561002a57600080fd5b506106f98061003a6000396000f3fe6080604052600436106100595760003560e01c8063371aa15814610065578063884c3006146101405780639890220b1461018f578063b45df66c146101a6578063d1bc76a114610212578063f4f8495b1461027757610060565b3661006057005b600080fd5b34801561007157600080fd5b5061013e6004803603604081101561008857600080fd5b81019080803590602001906401000000008111156100a557600080fd5b8201836020820111156100b757600080fd5b803590602001918460208302840111640100000000831117156100d957600080fd5b9091929391929390803590602001906401000000008111156100fa57600080fd5b82018360208201111561010c57600080fd5b8035906020019184602083028401116401000000008311171561012e57600080fd5b90919293919293905050506102a2565b005b34801561014c57600080fd5b506101796004803603602081101561016357600080fd5b810190808035906020019092919050505061036a565b6040518082815260200191505060405180910390f35b34801561019b57600080fd5b506101a461038b565b005b3480156101b257600080fd5b506101df600480360360208110156101c957600080fd5b8101908080359060200190929190505050610514565b604051808373ffffffffffffffffffffffffffffffffffffffff1681526020018281526020019250505060405180910390f35b34801561021e57600080fd5b5061024b6004803603602081101561023557600080fd5b8101908080359060200190929190505050610570565b604051808273ffffffffffffffffffffffffffffffffffffffff16815260200191505060405180910390f35b34801561028357600080fd5b5061028c6105ac565b6040518082815260200191505060405180910390f35b600060019054906101000a900460ff1615610325576040517f08c379a00000000000000000000000000000000000000000000000000000000081526004018080602001828103825260158152602001807f636f6e7472616374206c6f636b656420736f727279000000000000000000000081525060200191505060405180910390fd5b6001600060016101000a81548160ff0219169083151502179055508383600191906103519291906105b9565b50818160029190610363929190610659565b5050505050565b6002818154811061037757fe5b906000526020600020016000915090505481565b60008054906101000a900460ff1661040b576040517f08c379a000000000000000000000000000000000000000000000000000000000815260040180806020018281038252601f8152602001807f5265656e7472616e637947756172643a207265656e7472616e742063616c6c0081525060200191505060405180910390fd5b60008060006101000a81548160ff02191690831515021790555060004790506000620186a0828161043857fe5b04905060005b6001805490508110156104f55760006002828154811061045a57fe5b9060005260206000200154830290506001828154811061047657fe5b9060005260206000200160009054906101000a900473ffffffffffffffffffffffffffffffffffffffff1673ffffffffffffffffffffffffffffffffffffffff166108fc829081150290604051600060405180830381858888f193505050501580156104e6573d6000803e3d6000fd5b5050808060010191505061043e565b50505060016000806101000a81548160ff021916908315150217905550565b6000806001838154811061052457fe5b9060005260206000200160009054906101000a900473ffffffffffffffffffffffffffffffffffffffff166002848154811061055c57fe5b906000526020600020015491509150915091565b6001818154811061057d57fe5b906000526020600020016000915054906101000a900473ffffffffffffffffffffffffffffffffffffffff1681565b6000600180549050905090565b828054828255906000526020600020908101928215610648579160200282015b8281111561064757823573ffffffffffffffffffffffffffffffffffffffff168260006101000a81548173ffffffffffffffffffffffffffffffffffffffff021916908373ffffffffffffffffffffffffffffffffffffffff160217905550916020019190600101906105d9565b5b50905061065591906106a6565b5090565b828054828255906000526020600020908101928215610695579160200282015b82811115610694578235825591602001919060010190610679565b5b5090506106a291906106a6565b5090565b5b808211156106bf5760008160009055506001016106a7565b509056fea264697066735822122049266b566a07ff61e67559e1fa3f30d337ccb756a1f9844d6bebbe020a705bc864736f6c63430007030033",
  "linkReferences": {},
  "deployedLinkReferences": {}
}