{
  "_format": "hh-sol-artifact-1",
  "contractName": "EditionRegistry",
  "sourceName": "contracts/core/storage/EditionRegistry.sol",
  "abi": [
    {
      "inputs": [
        {
          "internalType": "contract KOAccessControls",
          "name": "_accessControls",
          "type": "address"
        },
        {
          "internalType": "uint256",
          "name": "_startingEditionPointer",
          "type": "uint256"
        }
      ],
      "stateMutability": "nonpayable",
      "type": "constructor"
    },
    {
      "anonymous": false,
      "inputs": [
        {
          "indexed": true,
          "internalType": "address",
          "name": "mintingContract",
          "type": "address"
        }
      ],
      "name": "ContractDisabled",
      "type": "event"
    },
    {
      "anonymous": false,
      "inputs": [
        {
          "indexed": true,
          "internalType": "address",
          "name": "mintingContract",
          "type": "address"
        }
      ],
      "name": "ContractEnabled",
      "type": "event"
    },
    {
      "inputs": [],
      "name": "MAX_EDITION_SIZE",
      "outputs": [
        {
          "internalType": "uint256",
          "name": "",
          "type": "uint256"
        }
      ],
      "stateMutability": "view",
      "type": "function"
    },
    {
      "inputs": [],
      "name": "accessControls",
      "outputs": [
        {
          "internalType": "contract KOAccessControls",
          "name": "",
          "type": "address"
        }
      ],
      "stateMutability": "view",
      "type": "function"
    },
    {
      "inputs": [
        {
          "internalType": "address",
          "name": "_contract",
          "type": "address"
        }
      ],
      "name": "disableNftContract",
      "outputs": [],
      "stateMutability": "nonpayable",
      "type": "function"
    },
    {
      "inputs": [],
      "name": "editionPointer",
      "outputs": [
        {
          "internalType": "uint256",
          "name": "",
          "type": "uint256"
        }
      ],
      "stateMutability": "view",
      "type": "function"
    },
    {
      "inputs": [
        {
          "internalType": "uint256",
          "name": "",
          "type": "uint256"
        }
      ],
      "name": "editionToNftContract",
      "outputs": [
        {
          "internalType": "address",
          "name": "",
          "type": "address"
        }
      ],
      "stateMutability": "view",
      "type": "function"
    },
    {
      "inputs": [
        {
          "internalType": "address",
          "name": "_contract",
          "type": "address"
        }
      ],
      "name": "enableNftContract",
      "outputs": [],
      "stateMutability": "nonpayable",
      "type": "function"
    },
    {
      "inputs": [],
      "name": "generateNextEditionNumber",
      "outputs": [
        {
          "internalType": "uint256",
          "name": "",
          "type": "uint256"
        }
      ],
      "stateMutability": "nonpayable",
      "type": "function"
    },
    {
      "inputs": [
        {
          "internalType": "address",
          "name": "",
          "type": "address"
        }
      ],
      "name": "koNftRegistry",
      "outputs": [
        {
          "internalType": "bool",
          "name": "",
          "type": "bool"
        }
      ],
      "stateMutability": "view",
      "type": "function"
    }
  ],
  "bytecode": "0x6080604052600060015534801561001557600080fd5b506040516105853803806105858339818101604052604081101561003857600080fd5b508051602090910151600080546001600160a01b0319166001600160a01b0390931692909217825560015561051290819061007390396000f3fe608060405234801561001057600080fd5b50600436106100885760003560e01c8063748365ef1161005b578063748365ef14610110578063b22e835d14610118578063f2a465fc1461013e578063f6f367dc1461017857610088565b8063108b78101461008d5780634a19ad99146100a75780636c5e845a146100cf5780636ca4cf73146100d7575b600080fd5b610095610180565b60408051918252519081900360200190f35b6100cd600480360360208110156100bd57600080fd5b50356001600160a01b031661022b565b005b610095610331565b6100f4600480360360208110156100ed57600080fd5b5035610337565b604080516001600160a01b039092168252519081900360200190f35b6100f4610352565b6100cd6004803603602081101561012e57600080fd5b50356001600160a01b0316610361565b6101646004803603602081101561015457600080fd5b50356001600160a01b031661046a565b604080519115158252519081900360200190f35b61009561047f565b60006003600061018e610485565b6001600160a01b0316815260208101919091526040016000205460ff166101e65760405162461bcd60e51b815260040180806020018281038252602681526020018061048a6026913960400191505060405180910390fd5b600180546103e801908190556101fa610485565b600082815260026020526040902080546001600160a01b0319166001600160a01b0392909216919091179055919050565b6000546001600160a01b031663c395fcb3610244610485565b6040518263ffffffff1660e01b815260040180826001600160a01b0316815260200191505060206040518083038186803b15801561028157600080fd5b505afa158015610295573d6000803e3d6000fd5b505050506040513d60208110156102ab57600080fd5b50516102e85760405162461bcd60e51b815260040180806020018281038252602d8152602001806104b0602d913960400191505060405180910390fd5b6001600160a01b038116600081815260036020526040808220805460ff19169055517f793bc6423dd0257d64f9d47db72fd4b2162f4541aa41740ba1c5fb5e2cd41bcd9190a250565b6103e881565b6002602052600090815260409020546001600160a01b031681565b6000546001600160a01b031681565b6000546001600160a01b031663c395fcb361037a610485565b6040518263ffffffff1660e01b815260040180826001600160a01b0316815260200191505060206040518083038186803b1580156103b757600080fd5b505afa1580156103cb573d6000803e3d6000fd5b505050506040513d60208110156103e157600080fd5b505161041e5760405162461bcd60e51b815260040180806020018281038252602d8152602001806104b0602d913960400191505060405180910390fd5b6001600160a01b038116600081815260036020526040808220805460ff19166001179055517fae81c15a680e6640ba872ca44f364ad67c60a04089ad9fa100f7a3ce94da9f689190a250565b60036020526000908152604090205460ff1681565b60015481565b339056fe45646974696f6e52656769737472793a2043616c6c6572206e6f74207265676973746572656445646974696f6e52656769737472793a2043616c6c6572206d7573742068617665206d696e74657220726f6c65a2646970667358221220b6ee9fcbf0598860afb546295fbcb5441a7e8a58fa4a07a2c5ccb26e71b3ae0c64736f6c63430007030033",
  "linkReferences": {},
  "deployedLinkReferences": {}
}